{
  "_format": "hh-sol-artifact-1",
  "contractName": "NFTMarcketplace",
  "sourceName": "contracts/NFTMarcketplace.sol",
  "abi": [
    {
      "inputs": [],
      "stateMutability": "nonpayable",
      "type": "constructor"
    },
    {
      "anonymous": false,
      "inputs": [
        {
          "indexed": true,
          "internalType": "address",
          "name": "owner",
          "type": "address"
        },
        {
          "indexed": true,
          "internalType": "address",
          "name": "approved",
          "type": "address"
        },
        {
          "indexed": true,
          "internalType": "uint256",
          "name": "tokenId",
          "type": "uint256"
        }
      ],
      "name": "Approval",
      "type": "event"
    },
    {
      "anonymous": false,
      "inputs": [
        {
          "indexed": true,
          "internalType": "address",
          "name": "owner",
          "type": "address"
        },
        {
          "indexed": true,
          "internalType": "address",
          "name": "operator",
          "type": "address"
        },
        {
          "indexed": false,
          "internalType": "bool",
          "name": "approved",
          "type": "bool"
        }
      ],
      "name": "ApprovalForAll",
      "type": "event"
    },
    {
      "anonymous": false,
      "inputs": [
        {
          "indexed": true,
          "internalType": "address",
          "name": "from",
          "type": "address"
        },
        {
          "indexed": true,
          "internalType": "address",
          "name": "to",
          "type": "address"
        },
        {
          "indexed": true,
          "internalType": "uint256",
          "name": "tokenId",
          "type": "uint256"
        }
      ],
      "name": "Transfer",
      "type": "event"
    },
    {
      "inputs": [
        {
          "internalType": "address",
          "name": "to",
          "type": "address"
        },
        {
          "internalType": "uint256",
          "name": "tokenId",
          "type": "uint256"
        }
      ],
      "name": "approve",
      "outputs": [],
      "stateMutability": "nonpayable",
      "type": "function"
    },
    {
      "inputs": [
        {
          "internalType": "address",
          "name": "owner",
          "type": "address"
        }
      ],
      "name": "balanceOf",
      "outputs": [
        {
          "internalType": "uint256",
          "name": "",
          "type": "uint256"
        }
      ],
      "stateMutability": "view",
      "type": "function"
    },
    {
      "inputs": [],
      "name": "count",
      "outputs": [
        {
          "internalType": "uint256",
          "name": "",
          "type": "uint256"
        }
      ],
      "stateMutability": "view",
      "type": "function"
    },
    {
      "inputs": [
        {
          "internalType": "uint256",
          "name": "tokenId",
          "type": "uint256"
        }
      ],
      "name": "createMarketSale",
      "outputs": [],
      "stateMutability": "payable",
      "type": "function"
    },
    {
      "inputs": [
        {
          "internalType": "string",
          "name": "tokenURI",
          "type": "string"
        },
        {
          "internalType": "uint256",
          "name": "price",
          "type": "uint256"
        }
      ],
      "name": "createToken",
      "outputs": [
        {
          "internalType": "uint256",
          "name": "",
          "type": "uint256"
        }
      ],
      "stateMutability": "payable",
      "type": "function"
    },
    {
      "inputs": [],
      "name": "getAllItems",
      "outputs": [
        {
          "components": [
            {
              "internalType": "uint256",
              "name": "tokenId",
              "type": "uint256"
            },
            {
              "internalType": "address payable",
              "name": "owner",
              "type": "address"
            },
            {
              "internalType": "uint256",
              "name": "price",
              "type": "uint256"
            },
            {
              "internalType": "bool",
              "name": "sold",
              "type": "bool"
            }
          ],
          "internalType": "struct NFTMarcketplace.Item[]",
          "name": "",
          "type": "tuple[]"
        }
      ],
      "stateMutability": "view",
      "type": "function"
    },
    {
      "inputs": [
        {
          "internalType": "uint256",
          "name": "tokenId",
          "type": "uint256"
        }
      ],
      "name": "getApproved",
      "outputs": [
        {
          "internalType": "address",
          "name": "",
          "type": "address"
        }
      ],
      "stateMutability": "view",
      "type": "function"
    },
    {
      "inputs": [],
      "name": "getMyTransactions",
      "outputs": [
        {
          "components": [
            {
              "internalType": "uint256",
              "name": "tokenId",
              "type": "uint256"
            },
            {
              "internalType": "address payable",
              "name": "owner",
              "type": "address"
            },
            {
              "internalType": "uint256",
              "name": "price",
              "type": "uint256"
            },
            {
              "internalType": "bool",
              "name": "sold",
              "type": "bool"
            }
          ],
          "internalType": "struct NFTMarcketplace.Item[]",
          "name": "",
          "type": "tuple[]"
        }
      ],
      "stateMutability": "view",
      "type": "function"
    },
    {
      "inputs": [],
      "name": "getmintPrice",
      "outputs": [
        {
          "internalType": "uint256",
          "name": "",
          "type": "uint256"
        }
      ],
      "stateMutability": "view",
      "type": "function"
    },
    {
      "inputs": [
        {
          "internalType": "address",
          "name": "owner",
          "type": "address"
        },
        {
          "internalType": "address",
          "name": "operator",
          "type": "address"
        }
      ],
      "name": "isApprovedForAll",
      "outputs": [
        {
          "internalType": "bool",
          "name": "",
          "type": "bool"
        }
      ],
      "stateMutability": "view",
      "type": "function"
    },
    {
      "inputs": [],
      "name": "name",
      "outputs": [
        {
          "internalType": "string",
          "name": "",
          "type": "string"
        }
      ],
      "stateMutability": "view",
      "type": "function"
    },
    {
      "inputs": [
        {
          "internalType": "uint256",
          "name": "tokenId",
          "type": "uint256"
        }
      ],
      "name": "ownerOf",
      "outputs": [
        {
          "internalType": "address",
          "name": "",
          "type": "address"
        }
      ],
      "stateMutability": "view",
      "type": "function"
    },
    {
      "inputs": [
        {
          "internalType": "uint256",
          "name": "_tokenId",
          "type": "uint256"
        }
      ],
      "name": "removeFromMarketplace",
      "outputs": [],
      "stateMutability": "nonpayable",
      "type": "function"
    },
    {
      "inputs": [
        {
          "internalType": "address",
          "name": "from",
          "type": "address"
        },
        {
          "internalType": "address",
          "name": "to",
          "type": "address"
        },
        {
          "internalType": "uint256",
          "name": "tokenId",
          "type": "uint256"
        }
      ],
      "name": "safeTransferFrom",
      "outputs": [],
      "stateMutability": "nonpayable",
      "type": "function"
    },
    {
      "inputs": [
        {
          "internalType": "address",
          "name": "from",
          "type": "address"
        },
        {
          "internalType": "address",
          "name": "to",
          "type": "address"
        },
        {
          "internalType": "uint256",
          "name": "tokenId",
          "type": "uint256"
        },
        {
          "internalType": "bytes",
          "name": "data",
          "type": "bytes"
        }
      ],
      "name": "safeTransferFrom",
      "outputs": [],
      "stateMutability": "nonpayable",
      "type": "function"
    },
    {
      "inputs": [
        {
          "internalType": "address",
          "name": "operator",
          "type": "address"
        },
        {
          "internalType": "bool",
          "name": "approved",
          "type": "bool"
        }
      ],
      "name": "setApprovalForAll",
      "outputs": [],
      "stateMutability": "nonpayable",
      "type": "function"
    },
    {
      "inputs": [
        {
          "internalType": "bytes4",
          "name": "interfaceId",
          "type": "bytes4"
        }
      ],
      "name": "supportsInterface",
      "outputs": [
        {
          "internalType": "bool",
          "name": "",
          "type": "bool"
        }
      ],
      "stateMutability": "view",
      "type": "function"
    },
    {
      "inputs": [],
      "name": "symbol",
      "outputs": [
        {
          "internalType": "string",
          "name": "",
          "type": "string"
        }
      ],
      "stateMutability": "view",
      "type": "function"
    },
    {
      "inputs": [
        {
          "internalType": "uint256",
          "name": "tokenId",
          "type": "uint256"
        }
      ],
      "name": "tokenURI",
      "outputs": [
        {
          "internalType": "string",
          "name": "",
          "type": "string"
        }
      ],
      "stateMutability": "view",
      "type": "function"
    },
    {
      "inputs": [
        {
          "internalType": "address",
          "name": "from",
          "type": "address"
        },
        {
          "internalType": "address",
          "name": "to",
          "type": "address"
        },
        {
          "internalType": "uint256",
          "name": "tokenId",
          "type": "uint256"
        }
      ],
      "name": "transferFrom",
      "outputs": [],
      "stateMutability": "nonpayable",
      "type": "function"
    }
  ],
  "bytecode": "0x608060405260006009556658d15e17628000600a557fffffffffffffffffffffffffffffffffffffffffffffffffffffffffffffffff600b553480156200004557600080fd5b506040518060400160405280600581526020017f4d794e46540000000000000000000000000000000000000000000000000000008152506040518060400160405280600381526020017f4e465400000000000000000000000000000000000000000000000000000000008152508160009081620000c39190620004d6565b508060019081620000d59190620004d6565b50505033600c60006101000a81548173ffffffffffffffffffffffffffffffffffffffff021916908373ffffffffffffffffffffffffffffffffffffffff160217905550620001876040518060400160405280600581526020017f4f776e6572000000000000000000000000000000000000000000000000000000815250600c60009054906101000a900473ffffffffffffffffffffffffffffffffffffffff166200018d60201b620012f91760201c565b620006c5565b6200022f8282604051602401620001a692919062000691565b6040516020818303038152906040527f319af333000000000000000000000000000000000000000000000000000000007bffffffffffffffffffffffffffffffffffffffffffffffffffffffff19166020820180517bffffffffffffffffffffffffffffffffffffffffffffffffffffffff83818316178352505050506200023360201b60201c565b5050565b60008151905060006a636f6e736f6c652e6c6f679050602083016000808483855afa5050505050565b600081519050919050565b7f4e487b7100000000000000000000000000000000000000000000000000000000600052604160045260246000fd5b7f4e487b7100000000000000000000000000000000000000000000000000000000600052602260045260246000fd5b60006002820490506001821680620002de57607f821691505b602082108103620002f457620002f362000296565b5b50919050565b60008190508160005260206000209050919050565b60006020601f8301049050919050565b600082821b905092915050565b6000600883026200035e7fffffffffffffffffffffffffffffffffffffffffffffffffffffffffffffffff826200031f565b6200036a86836200031f565b95508019841693508086168417925050509392505050565b6000819050919050565b6000819050919050565b6000620003b7620003b1620003ab8462000382565b6200038c565b62000382565b9050919050565b6000819050919050565b620003d38362000396565b620003eb620003e282620003be565b8484546200032c565b825550505050565b600090565b62000402620003f3565b6200040f818484620003c8565b505050565b5b8181101562000437576200042b600082620003f8565b60018101905062000415565b5050565b601f82111562000486576200045081620002fa565b6200045b846200030f565b810160208510156200046b578190505b620004836200047a856200030f565b83018262000414565b50505b505050565b600082821c905092915050565b6000620004ab600019846008026200048b565b1980831691505092915050565b6000620004c6838362000498565b9150826002028217905092915050565b620004e1826200025c565b67ffffffffffffffff811115620004fd57620004fc62000267565b5b620005098254620002c5565b620005168282856200043b565b600060209050601f8311600181146200054e576000841562000539578287015190505b620005458582620004b8565b865550620005b5565b601f1984166200055e86620002fa565b60005b82811015620005885784890151825560018201915060208501945060208101905062000561565b86831015620005a85784890151620005a4601f89168262000498565b8355505b6001600288020188555050505b505050505050565b600082825260208201905092915050565b60005b83811015620005ee578082015181840152602081019050620005d1565b60008484015250505050565b6000601f19601f8301169050919050565b600062000618826200025c565b620006248185620005bd565b935062000636818560208601620005ce565b6200064181620005fa565b840191505092915050565b600073ffffffffffffffffffffffffffffffffffffffff82169050919050565b600062000679826200064c565b9050919050565b6200068b816200066c565b82525050565b60006040820190508181036000830152620006ad81856200060b565b9050620006be602083018462000680565b9392505050565b613be680620006d56000396000f3fe60806040526004361061011f5760003560e01c806372b3b620116100a0578063ab38cb5611610064578063ab38cb56146103ee578063b88d4fde14610417578063be9af53614610440578063c87b56dd1461045c578063e985e9c5146104995761011f565b806372b3b620146103145780638d4823541461034457806395d89b411461036f57806397e4ca701461039a578063a22cb465146103c55761011f565b806323b872dd116100e757806323b872dd1461021d57806342842e0e146102465780634ba1d6aa1461026f5780636352211e1461029a57806370a08231146102d75761011f565b806301ffc9a71461012457806306661abd1461016157806306fdde031461018c578063081812fc146101b7578063095ea7b3146101f4575b600080fd5b34801561013057600080fd5b5061014b6004803603810190610146919061264c565b6104d6565b6040516101589190612694565b60405180910390f35b34801561016d57600080fd5b506101766105b8565b60405161018391906126c8565b60405180910390f35b34801561019857600080fd5b506101a16105be565b6040516101ae9190612773565b60405180910390f35b3480156101c357600080fd5b506101de60048036038101906101d991906127c1565b610650565b6040516101eb919061282f565b60405180910390f35b34801561020057600080fd5b5061021b60048036038101906102169190612876565b610696565b005b34801561022957600080fd5b50610244600480360381019061023f91906128b6565b6107ad565b005b34801561025257600080fd5b5061026d600480360381019061026891906128b6565b61080d565b005b34801561027b57600080fd5b5061028461082d565b6040516102919190612a4c565b60405180910390f35b3480156102a657600080fd5b506102c160048036038101906102bc91906127c1565b6109a2565b6040516102ce919061282f565b60405180910390f35b3480156102e357600080fd5b506102fe60048036038101906102f99190612a6e565b610a28565b60405161030b91906126c8565b60405180910390f35b61032e60048036038101906103299190612bd0565b610adf565b60405161033b91906126c8565b60405180910390f35b34801561035057600080fd5b50610359610bec565b60405161036691906126c8565b60405180910390f35b34801561037b57600080fd5b50610384610bf6565b6040516103919190612773565b60405180910390f35b3480156103a657600080fd5b506103af610c88565b6040516103bc9190612a4c565b60405180910390f35b3480156103d157600080fd5b506103ec60048036038101906103e79190612c58565b610ebe565b005b3480156103fa57600080fd5b50610415600480360381019061041091906127c1565b610ed4565b005b34801561042357600080fd5b5061043e60048036038101906104399190612d39565b610fe1565b005b61045a600480360381019061045591906127c1565b611043565b005b34801561046857600080fd5b50610483600480360381019061047e91906127c1565b611153565b6040516104909190612773565b60405180910390f35b3480156104a557600080fd5b506104c060048036038101906104bb9190612dbc565b611265565b6040516104cd9190612694565b60405180910390f35b60007f80ac58cd000000000000000000000000000000000000000000000000000000007bffffffffffffffffffffffffffffffffffffffffffffffffffffffff1916827bffffffffffffffffffffffffffffffffffffffffffffffffffffffff191614806105a157507f5b5e139f000000000000000000000000000000000000000000000000000000007bffffffffffffffffffffffffffffffffffffffffffffffffffffffff1916827bffffffffffffffffffffffffffffffffffffffffffffffffffffffff1916145b806105b157506105b082611395565b5b9050919050565b60095481565b6060600080546105cd90612e2b565b80601f01602080910402602001604051908101604052809291908181526020018280546105f990612e2b565b80156106465780601f1061061b57610100808354040283529160200191610646565b820191906000526020600020905b81548152906001019060200180831161062957829003601f168201915b5050505050905090565b600061065b826113ff565b6004600083815260200190815260200160002060009054906101000a900473ffffffffffffffffffffffffffffffffffffffff169050919050565b60006106a1826109a2565b90508073ffffffffffffffffffffffffffffffffffffffff168373ffffffffffffffffffffffffffffffffffffffff1603610711576040517f08c379a000000000000000000000000000000000000000000000000000000000815260040161070890612ece565b60405180910390fd5b8073ffffffffffffffffffffffffffffffffffffffff1661073061144a565b73ffffffffffffffffffffffffffffffffffffffff16148061075f575061075e8161075961144a565b611265565b5b61079e576040517f08c379a000000000000000000000000000000000000000000000000000000000815260040161079590612f60565b60405180910390fd5b6107a88383611452565b505050565b6107be6107b861144a565b8261150b565b6107fd576040517f08c379a00000000000000000000000000000000000000000000000000000000081526004016107f490612ff2565b60405180910390fd5b6108088383836115a0565b505050565b61082883838360405180602001604052806000815250610fe1565b505050565b6060600060095467ffffffffffffffff81111561084d5761084c612aa5565b5b60405190808252806020026020018201604052801561088657816020015b6108736125a0565b81526020019060019003908161086b5790505b50905060005b60095481101561099a576108ab6001826108a69190613041565b611899565b1561098757600d60006001836108c19190613041565b8152602001908152602001600020604051806080016040529081600082015481526020016001820160009054906101000a900473ffffffffffffffffffffffffffffffffffffffff1673ffffffffffffffffffffffffffffffffffffffff1673ffffffffffffffffffffffffffffffffffffffff168152602001600282015481526020016003820160009054906101000a900460ff16151515158152505082828151811061097257610971613075565b5b6020026020010181905250610986336118da565b5b8080610992906130a4565b91505061088c565b508091505090565b6000806109ae83611973565b9050600073ffffffffffffffffffffffffffffffffffffffff168173ffffffffffffffffffffffffffffffffffffffff1603610a1f576040517f08c379a0000000000000000000000000000000000000000000000000000000008152600401610a1690613138565b60405180910390fd5b80915050919050565b60008073ffffffffffffffffffffffffffffffffffffffff168273ffffffffffffffffffffffffffffffffffffffff1603610a98576040517f08c379a0000000000000000000000000000000000000000000000000000000008152600401610a8f906131ca565b60405180910390fd5b600360008373ffffffffffffffffffffffffffffffffffffffff1673ffffffffffffffffffffffffffffffffffffffff168152602001908152602001600020549050919050565b6000610aeb60076119b0565b6000610af760076119c6565b9050610b0333826119d4565b600c60009054906101000a900473ffffffffffffffffffffffffffffffffffffffff1673ffffffffffffffffffffffffffffffffffffffff166108fc600a549081150290604051600060405180830381858888f19350505050158015610b6d573d6000803e3d6000fd5b50610b77336118da565b60096000815480929190610b8a906130a4565b9190505550610b998185611bf1565b610ba38184611c5e565b610be26040518060400160405280600781526020017f546f6b656e49640000000000000000000000000000000000000000000000000081525082611d9d565b8091505092915050565b6000600a54905090565b606060018054610c0590612e2b565b80601f0160208091040260200160405190810160405280929190818152602001828054610c3190612e2b565b8015610c7e5780601f10610c5357610100808354040283529160200191610c7e565b820191906000526020600020905b815481529060010190602001808311610c6157829003601f168201915b5050505050905090565b6060600060095467ffffffffffffffff811115610ca857610ca7612aa5565b5b604051908082528060200260200182016040528015610ce157816020015b610cce6125a0565b815260200190600190039081610cc65790505b50905060005b600954811015610eb657610d3c600d6000600184610d059190613041565b815260200190815260200160002060010160009054906101000a900473ffffffffffffffffffffffffffffffffffffffff166118da565b3373ffffffffffffffffffffffffffffffffffffffff16600d6000600184610d649190613041565b815260200190815260200160002060010160009054906101000a900473ffffffffffffffffffffffffffffffffffffffff1673ffffffffffffffffffffffffffffffffffffffff1603610ea357610dc6600182610dc19190613041565b611899565b15610ea257610dd4336118da565b600d6000600183610de59190613041565b8152602001908152602001600020604051806080016040529081600082015481526020016001820160009054906101000a900473ffffffffffffffffffffffffffffffffffffffff1673ffffffffffffffffffffffffffffffffffffffff1673ffffffffffffffffffffffffffffffffffffffff168152602001600282015481526020016003820160009054906101000a900460ff161515151581525050828281518110610e9657610e95613075565b5b60200260200101819052505b5b8080610eae906130a4565b915050610ce7565b508091505090565b610ed0610ec961144a565b8383611e39565b5050565b610edd81611899565b610f1c576040517f08c379a0000000000000000000000000000000000000000000000000000000008152600401610f139061325c565b60405180910390fd5b3373ffffffffffffffffffffffffffffffffffffffff16610f3c826109a2565b73ffffffffffffffffffffffffffffffffffffffff1614610f92576040517f08c379a0000000000000000000000000000000000000000000000000000000008152600401610f8990613314565b60405180910390fd5b6001600d600083815260200190815260200160002060030160006101000a81548160ff021916908315150217905550600b54600d60008381526020019081526020016000206002018190555050565b610ff2610fec61144a565b8361150b565b611031576040517f08c379a000000000000000000000000000000000000000000000000000000000815260040161102890612ff2565b60405180910390fd5b61103d84848484611fa5565b50505050565b61104d60086119b0565b611056816109a2565b73ffffffffffffffffffffffffffffffffffffffff166108fc349081150290604051600060405180830381858888f1935050505015801561109b573d6000803e3d6000fd5b506110af6110a8826109a2565b33836115a0565b33600d600083815260200190815260200160002060010160006101000a81548173ffffffffffffffffffffffffffffffffffffffff021916908373ffffffffffffffffffffffffffffffffffffffff1602179055506001600d600083815260200190815260200160002060030160006101000a81548160ff021916908315150217905550600b54600d60008381526020019081526020016000206002018190555050565b606061115e826113ff565b600060066000848152602001908152602001600020805461117e90612e2b565b80601f01602080910402602001604051908101604052809291908181526020018280546111aa90612e2b565b80156111f75780601f106111cc576101008083540402835291602001916111f7565b820191906000526020600020905b8154815290600101906020018083116111da57829003601f168201915b505050505090506000611208612001565b9050600081510361121d578192505050611260565b60008251111561125257808260405160200161123a929190613370565b60405160208183030381529060405292505050611260565b61125b84612018565b925050505b919050565b6000600560008473ffffffffffffffffffffffffffffffffffffffff1673ffffffffffffffffffffffffffffffffffffffff16815260200190815260200160002060008373ffffffffffffffffffffffffffffffffffffffff1673ffffffffffffffffffffffffffffffffffffffff16815260200190815260200160002060009054906101000a900460ff16905092915050565b611391828260405160240161130f929190613394565b6040516020818303038152906040527f319af333000000000000000000000000000000000000000000000000000000007bffffffffffffffffffffffffffffffffffffffffffffffffffffffff19166020820180517bffffffffffffffffffffffffffffffffffffffffffffffffffffffff8381831617835250505050612080565b5050565b60007f01ffc9a7000000000000000000000000000000000000000000000000000000007bffffffffffffffffffffffffffffffffffffffffffffffffffffffff1916827bffffffffffffffffffffffffffffffffffffffffffffffffffffffff1916149050919050565b61140881611899565b611447576040517f08c379a000000000000000000000000000000000000000000000000000000000815260040161143e90613138565b60405180910390fd5b50565b600033905090565b816004600083815260200190815260200160002060006101000a81548173ffffffffffffffffffffffffffffffffffffffff021916908373ffffffffffffffffffffffffffffffffffffffff160217905550808273ffffffffffffffffffffffffffffffffffffffff166114c5836109a2565b73ffffffffffffffffffffffffffffffffffffffff167f8c5be1e5ebec7d5bd14f71427d1e84f3dd0314c0f7b2291e5b200ac8c7c3b92560405160405180910390a45050565b600080611517836109a2565b90508073ffffffffffffffffffffffffffffffffffffffff168473ffffffffffffffffffffffffffffffffffffffff16148061155957506115588185611265565b5b8061159757508373ffffffffffffffffffffffffffffffffffffffff1661157f84610650565b73ffffffffffffffffffffffffffffffffffffffff16145b91505092915050565b8273ffffffffffffffffffffffffffffffffffffffff166115c0826109a2565b73ffffffffffffffffffffffffffffffffffffffff1614611616576040517f08c379a000000000000000000000000000000000000000000000000000000000815260040161160d90613436565b60405180910390fd5b600073ffffffffffffffffffffffffffffffffffffffff168273ffffffffffffffffffffffffffffffffffffffff1603611685576040517f08c379a000000000000000000000000000000000000000000000000000000000815260040161167c906134c8565b60405180910390fd5b61169283838360016120a9565b8273ffffffffffffffffffffffffffffffffffffffff166116b2826109a2565b73ffffffffffffffffffffffffffffffffffffffff1614611708576040517f08c379a00000000000000000000000000000000000000000000000000000000081526004016116ff90613436565b60405180910390fd5b6004600082815260200190815260200160002060006101000a81549073ffffffffffffffffffffffffffffffffffffffff02191690556001600360008573ffffffffffffffffffffffffffffffffffffffff1673ffffffffffffffffffffffffffffffffffffffff168152602001908152602001600020600082825403925050819055506001600360008473ffffffffffffffffffffffffffffffffffffffff1673ffffffffffffffffffffffffffffffffffffffff16815260200190815260200160002060008282540192505081905550816002600083815260200190815260200160002060006101000a81548173ffffffffffffffffffffffffffffffffffffffff021916908373ffffffffffffffffffffffffffffffffffffffff160217905550808273ffffffffffffffffffffffffffffffffffffffff168473ffffffffffffffffffffffffffffffffffffffff167fddf252ad1be2c89b69c2b068fc378daa952ba7f163c4a11628f55a4df523b3ef60405160405180910390a461189483838360016121cf565b505050565b60008073ffffffffffffffffffffffffffffffffffffffff166118bb83611973565b73ffffffffffffffffffffffffffffffffffffffff1614159050919050565b611970816040516024016118ee919061282f565b6040516020818303038152906040527f2c2ecbc2000000000000000000000000000000000000000000000000000000007bffffffffffffffffffffffffffffffffffffffffffffffffffffffff19166020820180517bffffffffffffffffffffffffffffffffffffffffffffffffffffffff8381831617835250505050612080565b50565b60006002600083815260200190815260200160002060009054906101000a900473ffffffffffffffffffffffffffffffffffffffff169050919050565b6001816000016000828254019250508190555050565b600081600001549050919050565b600073ffffffffffffffffffffffffffffffffffffffff168273ffffffffffffffffffffffffffffffffffffffff1603611a43576040517f08c379a0000000000000000000000000000000000000000000000000000000008152600401611a3a90613534565b60405180910390fd5b611a4c81611899565b15611a8c576040517f08c379a0000000000000000000000000000000000000000000000000000000008152600401611a83906135a0565b60405180910390fd5b611a9a6000838360016120a9565b611aa381611899565b15611ae3576040517f08c379a0000000000000000000000000000000000000000000000000000000008152600401611ada906135a0565b60405180910390fd5b6001600360008473ffffffffffffffffffffffffffffffffffffffff1673ffffffffffffffffffffffffffffffffffffffff16815260200190815260200160002060008282540192505081905550816002600083815260200190815260200160002060006101000a81548173ffffffffffffffffffffffffffffffffffffffff021916908373ffffffffffffffffffffffffffffffffffffffff160217905550808273ffffffffffffffffffffffffffffffffffffffff16600073ffffffffffffffffffffffffffffffffffffffff167fddf252ad1be2c89b69c2b068fc378daa952ba7f163c4a11628f55a4df523b3ef60405160405180910390a4611bed6000838360016121cf565b5050565b611bfa82611899565b611c39576040517f08c379a0000000000000000000000000000000000000000000000000000000008152600401611c3090613632565b60405180910390fd5b80600660008481526020019081526020016000209081611c5991906137fe565b505050565b60008111611ca1576040517f08c379a0000000000000000000000000000000000000000000000000000000008152600401611c989061391c565b60405180910390fd5b611ca96125a0565b60008160600190151590811515815250508181604001818152505033816020019073ffffffffffffffffffffffffffffffffffffffff16908173ffffffffffffffffffffffffffffffffffffffff16815250508281600001818152505080600d60008581526020019081526020016000206000820151816000015560208201518160010160006101000a81548173ffffffffffffffffffffffffffffffffffffffff021916908373ffffffffffffffffffffffffffffffffffffffff1602179055506040820151816002015560608201518160030160006101000a81548160ff021916908315150217905550905050505050565b611e358282604051602401611db392919061393c565b6040516020818303038152906040527fb60e72cc000000000000000000000000000000000000000000000000000000007bffffffffffffffffffffffffffffffffffffffffffffffffffffffff19166020820180517bffffffffffffffffffffffffffffffffffffffffffffffffffffffff8381831617835250505050612080565b5050565b8173ffffffffffffffffffffffffffffffffffffffff168373ffffffffffffffffffffffffffffffffffffffff1603611ea7576040517f08c379a0000000000000000000000000000000000000000000000000000000008152600401611e9e906139b8565b60405180910390fd5b80600560008573ffffffffffffffffffffffffffffffffffffffff1673ffffffffffffffffffffffffffffffffffffffff16815260200190815260200160002060008473ffffffffffffffffffffffffffffffffffffffff1673ffffffffffffffffffffffffffffffffffffffff16815260200190815260200160002060006101000a81548160ff0219169083151502179055508173ffffffffffffffffffffffffffffffffffffffff168373ffffffffffffffffffffffffffffffffffffffff167f17307eab39ab6107e8899845ad3d59bd9653f200f220920489ca2b5937696c3183604051611f989190612694565b60405180910390a3505050565b611fb08484846115a0565b611fbc848484846121d5565b611ffb576040517f08c379a0000000000000000000000000000000000000000000000000000000008152600401611ff290613a4a565b60405180910390fd5b50505050565b606060405180602001604052806000815250905090565b6060612023826113ff565b600061202d612001565b9050600081511161204d5760405180602001604052806000815250612078565b806120578461235c565b604051602001612068929190613370565b6040516020818303038152906040525b915050919050565b60008151905060006a636f6e736f6c652e6c6f679050602083016000808483855afa5050505050565b60018111156121c957600073ffffffffffffffffffffffffffffffffffffffff168473ffffffffffffffffffffffffffffffffffffffff161461213d5780600360008673ffffffffffffffffffffffffffffffffffffffff1673ffffffffffffffffffffffffffffffffffffffff16815260200190815260200160002060008282546121359190613a6a565b925050819055505b600073ffffffffffffffffffffffffffffffffffffffff168373ffffffffffffffffffffffffffffffffffffffff16146121c85780600360008573ffffffffffffffffffffffffffffffffffffffff1673ffffffffffffffffffffffffffffffffffffffff16815260200190815260200160002060008282546121c09190613041565b925050819055505b5b50505050565b50505050565b60006121f68473ffffffffffffffffffffffffffffffffffffffff1661242a565b1561234f578373ffffffffffffffffffffffffffffffffffffffff1663150b7a0261221f61144a565b8786866040518563ffffffff1660e01b81526004016122419493929190613af3565b6020604051808303816000875af192505050801561227d57506040513d601f19601f8201168201806040525081019061227a9190613b54565b60015b6122ff573d80600081146122ad576040519150601f19603f3d011682016040523d82523d6000602084013e6122b2565b606091505b5060008151036122f7576040517f08c379a00000000000000000000000000000000000000000000000000000000081526004016122ee90613a4a565b60405180910390fd5b805181602001fd5b63150b7a0260e01b7bffffffffffffffffffffffffffffffffffffffffffffffffffffffff1916817bffffffffffffffffffffffffffffffffffffffffffffffffffffffff191614915050612354565b600190505b949350505050565b60606000600161236b8461244d565b01905060008167ffffffffffffffff81111561238a57612389612aa5565b5b6040519080825280601f01601f1916602001820160405280156123bc5781602001600182028036833780820191505090505b509050600082602001820190505b60011561241f578080600190039150507f3031323334353637383961626364656600000000000000000000000000000000600a86061a8153600a858161241357612412613b81565b5b049450600085036123ca575b819350505050919050565b6000808273ffffffffffffffffffffffffffffffffffffffff163b119050919050565b600080600090507a184f03e93ff9f4daa797ed6e38ed64bf6a1f01000000000000000083106124ab577a184f03e93ff9f4daa797ed6e38ed64bf6a1f01000000000000000083816124a1576124a0613b81565b5b0492506040810190505b6d04ee2d6d415b85acef810000000083106124e8576d04ee2d6d415b85acef810000000083816124de576124dd613b81565b5b0492506020810190505b662386f26fc10000831061251757662386f26fc10000838161250d5761250c613b81565b5b0492506010810190505b6305f5e1008310612540576305f5e100838161253657612535613b81565b5b0492506008810190505b612710831061256557612710838161255b5761255a613b81565b5b0492506004810190505b60648310612588576064838161257e5761257d613b81565b5b0492506002810190505b600a8310612597576001810190505b80915050919050565b604051806080016040528060008152602001600073ffffffffffffffffffffffffffffffffffffffff168152602001600081526020016000151581525090565b6000604051905090565b600080fd5b600080fd5b60007fffffffff0000000000000000000000000000000000000000000000000000000082169050919050565b612629816125f4565b811461263457600080fd5b50565b60008135905061264681612620565b92915050565b600060208284031215612662576126616125ea565b5b600061267084828501612637565b91505092915050565b60008115159050919050565b61268e81612679565b82525050565b60006020820190506126a96000830184612685565b92915050565b6000819050919050565b6126c2816126af565b82525050565b60006020820190506126dd60008301846126b9565b92915050565b600081519050919050565b600082825260208201905092915050565b60005b8381101561271d578082015181840152602081019050612702565b60008484015250505050565b6000601f19601f8301169050919050565b6000612745826126e3565b61274f81856126ee565b935061275f8185602086016126ff565b61276881612729565b840191505092915050565b6000602082019050818103600083015261278d818461273a565b905092915050565b61279e816126af565b81146127a957600080fd5b50565b6000813590506127bb81612795565b92915050565b6000602082840312156127d7576127d66125ea565b5b60006127e5848285016127ac565b91505092915050565b600073ffffffffffffffffffffffffffffffffffffffff82169050919050565b6000612819826127ee565b9050919050565b6128298161280e565b82525050565b60006020820190506128446000830184612820565b92915050565b6128538161280e565b811461285e57600080fd5b50565b6000813590506128708161284a565b92915050565b6000806040838503121561288d5761288c6125ea565b5b600061289b85828601612861565b92505060206128ac858286016127ac565b9150509250929050565b6000806000606084860312156128cf576128ce6125ea565b5b60006128dd86828701612861565b93505060206128ee86828701612861565b92505060406128ff868287016127ac565b9150509250925092565b600081519050919050565b600082825260208201905092915050565b6000819050602082019050919050565b61293e816126af565b82525050565b600061294f826127ee565b9050919050565b61295f81612944565b82525050565b61296e81612679565b82525050565b60808201600082015161298a6000850182612935565b50602082015161299d6020850182612956565b5060408201516129b06040850182612935565b5060608201516129c36060850182612965565b50505050565b60006129d58383612974565b60808301905092915050565b6000602082019050919050565b60006129f982612909565b612a038185612914565b9350612a0e83612925565b8060005b83811015612a3f578151612a2688826129c9565b9750612a31836129e1565b925050600181019050612a12565b5085935050505092915050565b60006020820190508181036000830152612a6681846129ee565b905092915050565b600060208284031215612a8457612a836125ea565b5b6000612a9284828501612861565b91505092915050565b600080fd5b600080fd5b7f4e487b7100000000000000000000000000000000000000000000000000000000600052604160045260246000fd5b612add82612729565b810181811067ffffffffffffffff82111715612afc57612afb612aa5565b5b80604052505050565b6000612b0f6125e0565b9050612b1b8282612ad4565b919050565b600067ffffffffffffffff821115612b3b57612b3a612aa5565b5b612b4482612729565b9050602081019050919050565b82818337600083830152505050565b6000612b73612b6e84612b20565b612b05565b905082815260208101848484011115612b8f57612b8e612aa0565b5b612b9a848285612b51565b509392505050565b600082601f830112612bb757612bb6612a9b565b5b8135612bc7848260208601612b60565b91505092915050565b60008060408385031215612be757612be66125ea565b5b600083013567ffffffffffffffff811115612c0557612c046125ef565b5b612c1185828601612ba2565b9250506020612c22858286016127ac565b9150509250929050565b612c3581612679565b8114612c4057600080fd5b50565b600081359050612c5281612c2c565b92915050565b60008060408385031215612c6f57612c6e6125ea565b5b6000612c7d85828601612861565b9250506020612c8e85828601612c43565b9150509250929050565b600067ffffffffffffffff821115612cb357612cb2612aa5565b5b612cbc82612729565b9050602081019050919050565b6000612cdc612cd784612c98565b612b05565b905082815260208101848484011115612cf857612cf7612aa0565b5b612d03848285612b51565b509392505050565b600082601f830112612d2057612d1f612a9b565b5b8135612d30848260208601612cc9565b91505092915050565b60008060008060808587031215612d5357612d526125ea565b5b6000612d6187828801612861565b9450506020612d7287828801612861565b9350506040612d83878288016127ac565b925050606085013567ffffffffffffffff811115612da457612da36125ef565b5b612db087828801612d0b565b91505092959194509250565b60008060408385031215612dd357612dd26125ea565b5b6000612de185828601612861565b9250506020612df285828601612861565b9150509250929050565b7f4e487b7100000000000000000000000000000000000000000000000000000000600052602260045260246000fd5b60006002820490506001821680612e4357607f821691505b602082108103612e5657612e55612dfc565b5b50919050565b7f4552433732313a20617070726f76616c20746f2063757272656e74206f776e6560008201527f7200000000000000000000000000000000000000000000000000000000000000602082015250565b6000612eb86021836126ee565b9150612ec382612e5c565b604082019050919050565b60006020820190508181036000830152612ee781612eab565b9050919050565b7f4552433732313a20617070726f76652063616c6c6572206973206e6f7420746f60008201527f6b656e206f776e6572206f7220617070726f76656420666f7220616c6c000000602082015250565b6000612f4a603d836126ee565b9150612f5582612eee565b604082019050919050565b60006020820190508181036000830152612f7981612f3d565b9050919050565b7f4552433732313a2063616c6c6572206973206e6f7420746f6b656e206f776e6560008201527f72206f7220617070726f76656400000000000000000000000000000000000000602082015250565b6000612fdc602d836126ee565b9150612fe782612f80565b604082019050919050565b6000602082019050818103600083015261300b81612fcf565b9050919050565b7f4e487b7100000000000000000000000000000000000000000000000000000000600052601160045260246000fd5b600061304c826126af565b9150613057836126af565b925082820190508082111561306f5761306e613012565b5b92915050565b7f4e487b7100000000000000000000000000000000000000000000000000000000600052603260045260246000fd5b60006130af826126af565b91507fffffffffffffffffffffffffffffffffffffffffffffffffffffffffffffffff82036130e1576130e0613012565b5b600182019050919050565b7f4552433732313a20696e76616c696420746f6b656e2049440000000000000000600082015250565b60006131226018836126ee565b915061312d826130ec565b602082019050919050565b6000602082019050818103600083015261315181613115565b9050919050565b7f4552433732313a2061646472657373207a65726f206973206e6f74206120766160008201527f6c6964206f776e65720000000000000000000000000000000000000000000000602082015250565b60006131b46029836126ee565b91506131bf82613158565b604082019050919050565b600060208201905081810360008301526131e3816131a7565b9050919050565b7f72656d6f766546726f6d4d61726b6574706c6163653a20746f6b656e206e6f7460008201527f20666f756e640000000000000000000000000000000000000000000000000000602082015250565b60006132466026836126ee565b9150613251826131ea565b604082019050919050565b6000602082019050818103600083015261327581613239565b9050919050565b7f72656d6f766546726f6d4d61726b6574706c6163653a206f6e6c79206f776e6560008201527f722063616e2072656d6f76652074686520746f6b656e2066726f6d206d61726b60208201527f6574706c61636500000000000000000000000000000000000000000000000000604082015250565b60006132fe6047836126ee565b91506133098261327c565b606082019050919050565b6000602082019050818103600083015261332d816132f1565b9050919050565b600081905092915050565b600061334a826126e3565b6133548185613334565b93506133648185602086016126ff565b80840191505092915050565b600061337c828561333f565b9150613388828461333f565b91508190509392505050565b600060408201905081810360008301526133ae818561273a565b90506133bd6020830184612820565b9392505050565b7f4552433732313a207472616e736665722066726f6d20696e636f72726563742060008201527f6f776e6572000000000000000000000000000000000000000000000000000000602082015250565b60006134206025836126ee565b915061342b826133c4565b604082019050919050565b6000602082019050818103600083015261344f81613413565b9050919050565b7f4552433732313a207472616e7366657220746f20746865207a65726f2061646460008201527f7265737300000000000000000000000000000000000000000000000000000000602082015250565b60006134b26024836126ee565b91506134bd82613456565b604082019050919050565b600060208201905081810360008301526134e1816134a5565b9050919050565b7f4552433732313a206d696e7420746f20746865207a65726f2061646472657373600082015250565b600061351e6020836126ee565b9150613529826134e8565b602082019050919050565b6000602082019050818103600083015261354d81613511565b9050919050565b7f4552433732313a20746f6b656e20616c7265616479206d696e74656400000000600082015250565b600061358a601c836126ee565b915061359582613554565b602082019050919050565b600060208201905081810360008301526135b98161357d565b9050919050565b7f45524337323155524953746f726167653a2055524920736574206f66206e6f6e60008201527f6578697374656e7420746f6b656e000000000000000000000000000000000000602082015250565b600061361c602e836126ee565b9150613627826135c0565b604082019050919050565b6000602082019050818103600083015261364b8161360f565b9050919050565b60008190508160005260206000209050919050565b60006020601f8301049050919050565b600082821b905092915050565b6000600883026136b47fffffffffffffffffffffffffffffffffffffffffffffffffffffffffffffffff82613677565b6136be8683613677565b95508019841693508086168417925050509392505050565b6000819050919050565b60006136fb6136f66136f1846126af565b6136d6565b6126af565b9050919050565b6000819050919050565b613715836136e0565b61372961372182613702565b848454613684565b825550505050565b600090565b61373e613731565b61374981848461370c565b505050565b5b8181101561376d57613762600082613736565b60018101905061374f565b5050565b601f8211156137b25761378381613652565b61378c84613667565b8101602085101561379b578190505b6137af6137a785613667565b83018261374e565b50505b505050565b600082821c905092915050565b60006137d5600019846008026137b7565b1980831691505092915050565b60006137ee83836137c4565b9150826002028217905092915050565b613807826126e3565b67ffffffffffffffff8111156138205761381f612aa5565b5b61382a8254612e2b565b613835828285613771565b600060209050601f8311600181146138685760008415613856578287015190505b61386085826137e2565b8655506138c8565b601f19841661387686613652565b60005b8281101561389e57848901518255600182019150602085019450602081019050613879565b868310156138bb57848901516138b7601f8916826137c4565b8355505b6001600288020188555050505b505050505050565b7f5072696365206d757374206265206174206c6561737420312077656900000000600082015250565b6000613906601c836126ee565b9150613911826138d0565b602082019050919050565b60006020820190508181036000830152613935816138f9565b9050919050565b60006040820190508181036000830152613956818561273a565b905061396560208301846126b9565b9392505050565b7f4552433732313a20617070726f766520746f2063616c6c657200000000000000600082015250565b60006139a26019836126ee565b91506139ad8261396c565b602082019050919050565b600060208201905081810360008301526139d181613995565b9050919050565b7f4552433732313a207472616e7366657220746f206e6f6e20455243373231526560008201527f63656976657220696d706c656d656e7465720000000000000000000000000000602082015250565b6000613a346032836126ee565b9150613a3f826139d8565b604082019050919050565b60006020820190508181036000830152613a6381613a27565b9050919050565b6000613a75826126af565b9150613a80836126af565b9250828203905081811115613a9857613a97613012565b5b92915050565b600081519050919050565b600082825260208201905092915050565b6000613ac582613a9e565b613acf8185613aa9565b9350613adf8185602086016126ff565b613ae881612729565b840191505092915050565b6000608082019050613b086000830187612820565b613b156020830186612820565b613b2260408301856126b9565b8181036060830152613b348184613aba565b905095945050505050565b600081519050613b4e81612620565b92915050565b600060208284031215613b6a57613b696125ea565b5b6000613b7884828501613b3f565b91505092915050565b7f4e487b7100000000000000000000000000000000000000000000000000000000600052601260045260246000fdfea264697066735822122047f5a72477d4cf63ae3e15ee65fea29fea846259181574dd69ef204e1243309464736f6c63430008110033",
  "linkReferences": {},
  "deployedLinkReferences": {}
}